{
  "_format": "hh-sol-artifact-1",
  "contractName": "AIMe",
  "sourceName": "contracts/aime/AIMeV2.sol",
  "abi": [
    {
      "anonymous": false,
      "inputs": [
        {
          "indexed": false,
          "internalType": "uint256",
          "name": "bidId",
          "type": "uint256"
        },
        {
          "indexed": false,
          "internalType": "address",
          "name": "aimeAddress",
          "type": "address"
        },
        {
          "indexed": false,
          "internalType": "address",
          "name": "advertiser",
          "type": "address"
        }
      ],
      "name": "AIMeAdBid",
      "type": "event"
    },
    {
      "anonymous": false,
      "inputs": [
        {
          "indexed": false,
          "internalType": "address",
          "name": "aimeOwnerAddress",
          "type": "address"
        },
        {
          "indexed": false,
          "internalType": "address",
          "name": "powerAddress",
          "type": "address"
        }
      ],
      "name": "AIMeCreated",
      "type": "event"
    },
    {
      "anonymous": false,
      "inputs": [
        {
          "indexed": false,
          "internalType": "address",
          "name": "aimeAddress",
          "type": "address"
        },
        {
          "indexed": false,
          "internalType": "address",
          "name": "to",
          "type": "address"
        },
        {
          "indexed": false,
          "internalType": "uint256",
          "name": "amount",
          "type": "uint256"
        }
      ],
      "name": "AIMeRewardClaimed",
      "type": "event"
    },
    {
      "anonymous": false,
      "inputs": [
        {
          "indexed": false,
          "internalType": "uint256",
          "name": "bidId",
          "type": "uint256"
        },
        {
          "indexed": false,
          "internalType": "address",
          "name": "aimeAddress",
          "type": "address"
        },
        {
          "indexed": false,
          "internalType": "address",
          "name": "advertiser",
          "type": "address"
        }
      ],
      "name": "AdBidEnded",
      "type": "event"
    },
    {
      "anonymous": false,
      "inputs": [
        {
          "indexed": false,
          "internalType": "uint256",
          "name": "bidId",
          "type": "uint256"
        },
        {
          "indexed": false,
          "internalType": "address",
          "name": "aimeAddress",
          "type": "address"
        },
        {
          "indexed": false,
          "internalType": "address",
          "name": "to",
          "type": "address"
        },
        {
          "indexed": false,
          "internalType": "uint256",
          "name": "amount",
          "type": "uint256"
        }
      ],
      "name": "AdRewardClaimed",
      "type": "event"
    },
    {
      "anonymous": false,
      "inputs": [
        {
          "indexed": false,
          "internalType": "uint256",
          "name": "bidId",
          "type": "uint256"
        },
        {
          "indexed": false,
          "internalType": "address",
          "name": "aimeAddress",
          "type": "address"
        },
        {
          "indexed": false,
          "internalType": "address",
          "name": "to",
          "type": "address"
        },
        {
          "indexed": false,
          "internalType": "uint256",
          "name": "amount",
          "type": "uint256"
        }
      ],
      "name": "BidRefunded",
      "type": "event"
    },
    {
      "anonymous": false,
      "inputs": [
        {
          "indexed": true,
          "internalType": "address",
          "name": "previousOwner",
          "type": "address"
        },
        {
          "indexed": true,
          "internalType": "address",
          "name": "newOwner",
          "type": "address"
        }
      ],
      "name": "OwnershipTransferred",
      "type": "event"
    },
    {
      "inputs": [],
      "name": "AIME_CREATOR_POWER_AMOUNT",
      "outputs": [
        {
          "internalType": "uint256",
          "name": "",
          "type": "uint256"
        }
      ],
      "stateMutability": "view",
      "type": "function"
    },
    {
      "inputs": [],
      "name": "AIME_MIN_BID_AMOUNT",
      "outputs": [
        {
          "internalType": "uint256",
          "name": "",
          "type": "uint256"
        }
      ],
      "stateMutability": "view",
      "type": "function"
    },
    {
      "inputs": [],
      "name": "AIME_REWARD_AMOUNT",
      "outputs": [
        {
          "internalType": "uint256",
          "name": "",
          "type": "uint256"
        }
      ],
      "stateMutability": "view",
      "type": "function"
    },
    {
      "inputs": [],
      "name": "TIMEOUT",
      "outputs": [
        {
          "internalType": "uint256",
          "name": "",
          "type": "uint256"
        }
      ],
      "stateMutability": "view",
      "type": "function"
    },
    {
      "inputs": [
        {
          "internalType": "address",
          "name": "",
          "type": "address"
        },
        {
          "internalType": "uint256",
          "name": "",
          "type": "uint256"
        }
      ],
      "name": "addressNonceUsed",
      "outputs": [
        {
          "internalType": "bool",
          "name": "",
          "type": "bool"
        }
      ],
      "stateMutability": "view",
      "type": "function"
    },
    {
      "inputs": [
        {
          "internalType": "address",
          "name": "",
          "type": "address"
        }
      ],
      "name": "aimePowerAddress",
      "outputs": [
        {
          "internalType": "address",
          "name": "",
          "type": "address"
        }
      ],
      "stateMutability": "view",
      "type": "function"
    },
    {
      "inputs": [
        {
          "internalType": "address",
          "name": "",
          "type": "address"
        }
      ],
      "name": "aimeRewardBalance",
      "outputs": [
        {
          "internalType": "uint256",
          "name": "",
          "type": "uint256"
        }
      ],
      "stateMutability": "view",
      "type": "function"
    },
    {
      "inputs": [],
      "name": "attester",
      "outputs": [
        {
          "internalType": "address",
          "name": "",
          "type": "address"
        }
      ],
      "stateMutability": "view",
      "type": "function"
    },
    {
      "inputs": [
        {
          "internalType": "address",
          "name": "aimeAddress",
          "type": "address"
        },
        {
          "internalType": "string",
          "name": "url",
          "type": "string"
        },
        {
          "internalType": "string",
          "name": "desc",
          "type": "string"
        },
        {
          "internalType": "uint256",
          "name": "amount",
          "type": "uint256"
        }
      ],
      "name": "bidAd",
      "outputs": [],
      "stateMutability": "nonpayable",
      "type": "function"
    },
    {
      "inputs": [
        {
          "internalType": "address",
          "name": "aimeAddress",
          "type": "address"
        },
        {
          "internalType": "uint256",
          "name": "amount",
          "type": "uint256"
        },
        {
          "internalType": "uint256",
          "name": "nonce",
          "type": "uint256"
        },
        {
          "internalType": "bytes",
          "name": "signature",
          "type": "bytes"
        }
      ],
      "name": "claimAIMeReward",
      "outputs": [
        {
          "internalType": "bool",
          "name": "",
          "type": "bool"
        }
      ],
      "stateMutability": "nonpayable",
      "type": "function"
    },
    {
      "inputs": [
        {
          "internalType": "address",
          "name": "aimeAddress",
          "type": "address"
        },
        {
          "internalType": "uint256",
          "name": "bidId",
          "type": "uint256"
        },
        {
          "internalType": "uint256",
          "name": "amount",
          "type": "uint256"
        },
        {
          "internalType": "uint256",
          "name": "nonce",
          "type": "uint256"
        },
        {
          "internalType": "bytes",
          "name": "signature",
          "type": "bytes"
        }
      ],
      "name": "claimAdReward",
      "outputs": [
        {
          "internalType": "bool",
          "name": "",
          "type": "bool"
        }
      ],
      "stateMutability": "nonpayable",
      "type": "function"
    },
    {
      "inputs": [
        {
          "internalType": "address",
          "name": "aimeAddress",
          "type": "address"
        },
        {
          "internalType": "uint256",
          "name": "bidId",
          "type": "uint256"
        },
        {
          "internalType": "uint256",
          "name": "amount",
          "type": "uint256"
        },
        {
          "internalType": "uint256",
          "name": "nonce",
          "type": "uint256"
        },
        {
          "internalType": "bytes",
          "name": "signature",
          "type": "bytes"
        }
      ],
      "name": "claimBidRefund",
      "outputs": [
        {
          "internalType": "bool",
          "name": "",
          "type": "bool"
        }
      ],
      "stateMutability": "nonpayable",
      "type": "function"
    },
    {
      "inputs": [
        {
          "internalType": "string",
          "name": "name",
          "type": "string"
        },
        {
          "internalType": "string",
          "name": "symbol",
          "type": "string"
        }
      ],
      "name": "createAIMe",
      "outputs": [],
      "stateMutability": "nonpayable",
      "type": "function"
    },
    {
      "inputs": [
        {
          "internalType": "address",
          "name": "",
          "type": "address"
        }
      ],
      "name": "curBid",
      "outputs": [
        {
          "internalType": "uint256",
          "name": "bidId",
          "type": "uint256"
        },
        {
          "internalType": "string",
          "name": "url",
          "type": "string"
        },
        {
          "internalType": "string",
          "name": "desc",
          "type": "string"
        },
        {
          "internalType": "uint256",
          "name": "amount",
          "type": "uint256"
        },
        {
          "internalType": "address",
          "name": "advertiser",
          "type": "address"
        },
        {
          "internalType": "uint256",
          "name": "time",
          "type": "uint256"
        }
      ],
      "stateMutability": "view",
      "type": "function"
    },
    {
      "inputs": [
        {
          "internalType": "address",
          "name": "",
          "type": "address"
        }
      ],
      "name": "curBidRemain",
      "outputs": [
        {
          "internalType": "uint256",
          "name": "",
          "type": "uint256"
        }
      ],
      "stateMutability": "view",
      "type": "function"
    },
    {
      "inputs": [],
      "name": "owner",
      "outputs": [
        {
          "internalType": "address",
          "name": "",
          "type": "address"
        }
      ],
      "stateMutability": "view",
      "type": "function"
    },
    {
      "inputs": [],
      "name": "renounceOwnership",
      "outputs": [],
      "stateMutability": "nonpayable",
      "type": "function"
    },
    {
      "inputs": [
        {
          "internalType": "address",
          "name": "_attester",
          "type": "address"
        }
      ],
      "name": "setAttester",
      "outputs": [],
      "stateMutability": "nonpayable",
      "type": "function"
    },
    {
      "inputs": [
        {
          "internalType": "address",
          "name": "newOwner",
          "type": "address"
        }
      ],
      "name": "transferOwnership",
      "outputs": [],
      "stateMutability": "nonpayable",
      "type": "function"
    }
  ],
  "bytecode": "0x6080604052620151806002556709b6e64a8ec60000600355670429d069189e00006004556509184e72a00060055534801561003957600080fd5b5061004333610048565b610098565b600080546001600160a01b038381166001600160a01b0319831681178455604051919092169283917f8be0079c531659141344cd1fd0a4f28419497f9722a3daafe3b4186f6b6457e09190a35050565b6139fd806100a76000396000f3fe60806040523480156200001157600080fd5b50600436106200016c5760003560e01c80638da5cb5b11620000dd578063cd907315116200008b578063e6a529c5116200006e578063e6a529c51462000373578063f2fde38b146200038a578063f56f48f214620003a157600080fd5b8063cd907315146200032b578063d66fec67146200035c57600080fd5b80639daf85ab11620000c05780639daf85ab14620002f3578063b1dcf7f8146200030a578063c37c767b146200032157600080fd5b80638da5cb5b14620002b157806397379c4314620002d057600080fd5b806347b0c3b3116200013b578063664deadd116200011e578063664deadd1462000272578063678ed3a3146200029d578063715018a614620002a757600080fd5b806347b0c3b314620002475780635369420c146200026857600080fd5b80630452ac50146200017157806329f9aea514620001d45780633050eeb81462000206578063422dff09146200022e575b600080fd5b620001aa62000182366004620022a8565b60076020526000908152604090205473ffffffffffffffffffffffffffffffffffffffff1681565b60405173ffffffffffffffffffffffffffffffffffffffff90911681526020015b60405180910390f35b620001f7620001e5366004620022a8565b600a6020526000908152604090205481565b604051908152602001620001cb565b6200021d6200021736600462002373565b620003ab565b6040519015158152602001620001cb565b620002456200023f366004620022c5565b620006e0565b005b600154620001aa9073ffffffffffffffffffffffffffffffffffffffff1681565b620001f760045481565b6200028962000283366004620022a8565b62000d91565b604051620001cb9695949392919062002588565b620001f760055481565b6200024562000eff565b60005473ffffffffffffffffffffffffffffffffffffffff16620001aa565b620001f7620002e1366004620022a8565b60096020526000908152604090205481565b6200024562000304366004620022a8565b62000f90565b620002456200031b36600462002469565b6200105a565b620001f760035481565b6200021d6200033c36600462002347565b600660209081526000928352604080842090915290825290205460ff1681565b6200021d6200036d366004620023d8565b620012df565b6200021d62000384366004620023d8565b620015d0565b620002456200039b366004620022a8565b62001835565b620001f760025481565b73ffffffffffffffffffffffffffffffffffffffff84811660009081526007602052604081205490911662000441576040517f08c379a000000000000000000000000000000000000000000000000000000000815260206004820152600c60248201527f496e76616c69642041494d65000000000000000000000000000000000000000060448201526064015b60405180910390fd5b73ffffffffffffffffffffffffffffffffffffffff85811660009081526007602090815260408083205490517f41494d6552657761726400000000000000000000000000000000000000000000928101929092527fffffffffffffffffffffffffffffffffffffffff00000000000000000000000060608a811b8216602a85015233901b16603e8301526052820188905260728201879052909216916092016040516020818303038152906040528051906020012090506200050481856200196b565b5073ffffffffffffffffffffffffffffffffffffffff87166000908152600a602052604090205486111562000596576040517f08c379a000000000000000000000000000000000000000000000000000000000815260206004820152600f60248201527f526577617264732072756e206f75740000000000000000000000000000000000604482015260640162000438565b73ffffffffffffffffffffffffffffffffffffffff87166000908152600a602052604081208054889290620005cd90849062002681565b90915550506040517fa9059cbb0000000000000000000000000000000000000000000000000000000081523360048201526024810187905273ffffffffffffffffffffffffffffffffffffffff83169063a9059cbb90604401602060405180830381600087803b1580156200064157600080fd5b505af115801562000656573d6000803e3d6000fd5b505050506040513d601f19601f820116820180604052508101906200067c919062002447565b506040805173ffffffffffffffffffffffffffffffffffffffff891681523360208201529081018790527f5bfbc7414f3f86ed13692560c775ae1cd976ab6b2bc39d07f37fc12420dc67f69060600160405180910390a15060019695505050505050565b73ffffffffffffffffffffffffffffffffffffffff8481166000908152600760205260409020541662000770576040517f08c379a000000000000000000000000000000000000000000000000000000000815260206004820152600c60248201527f496e76616c69642041494d650000000000000000000000000000000000000000604482015260640162000438565b600554811015620007de576040517f08c379a000000000000000000000000000000000000000000000000000000000815260206004820152601760248201527f496e73756666696369656e742062696420616d6f756e74000000000000000000604482015260640162000438565b73ffffffffffffffffffffffffffffffffffffffff808516600090815260076020908152604080832054600254600890935292206005015491909216916200082691620025ec565b421015620008c85773ffffffffffffffffffffffffffffffffffffffff851660009081526009602052604090205462000860908362001a8b565b620008c8576040517f08c379a000000000000000000000000000000000000000000000000000000000815260206004820152601660248201527f496e73756666696369656e742062696420707269636500000000000000000000604482015260640162000438565b73ffffffffffffffffffffffffffffffffffffffff851660009081526008602052604090205415620009665773ffffffffffffffffffffffffffffffffffffffff85811660008181526008602090815260409182902080546004909101548351918252918101939093529092168183015290517ff2693d9688bf3376ea82d5c83fd509c5fd70cd62f67a1b05d40f2447774e20d99181900360600190a15b6040517f70a08231000000000000000000000000000000000000000000000000000000008152336004820152829073ffffffffffffffffffffffffffffffffffffffff8316906370a082319060240160206040518083038186803b158015620009ce57600080fd5b505afa158015620009e3573d6000803e3d6000fd5b505050506040513d601f19601f8201168201806040525081019062000a099190620024d1565b101562000a73576040517f08c379a000000000000000000000000000000000000000000000000000000000815260206004820152601260248201527f62616c616e6365206e6f7420656e6f7567680000000000000000000000000000604482015260640162000438565b6040517fdd62ed3e000000000000000000000000000000000000000000000000000000008152336004820152306024820152829073ffffffffffffffffffffffffffffffffffffffff83169063dd62ed3e9060440160206040518083038186803b15801562000ae157600080fd5b505afa15801562000af6573d6000803e3d6000fd5b505050506040513d601f19601f8201168201806040525081019062000b1c9190620024d1565b101562000b86576040517f08c379a000000000000000000000000000000000000000000000000000000000815260206004820152601460248201527f616c6c6f77616e6365206e6f7420656e6f756768000000000000000000000000604482015260640162000438565b6040517f23b872dd0000000000000000000000000000000000000000000000000000000081523360048201523060248201526044810183905273ffffffffffffffffffffffffffffffffffffffff8216906323b872dd90606401602060405180830381600087803b15801562000bfb57600080fd5b505af115801562000c10573d6000803e3d6000fd5b505050506040513d601f19601f8201168201806040525081019062000c36919062002447565b50600062000c4362001ab3565b6040805160c0810182528281526020808201898152828401899052606083018890523360808401524260a084015273ffffffffffffffffffffffffffffffffffffffff8b16600090815260088352939093208251815592518051949550919362000cb492600185019201906200211d565b506040820151805162000cd29160028401916020909101906200211d565b50606082810151600383015560808301516004830180547fffffffffffffffffffffffff00000000000000000000000000000000000000001673ffffffffffffffffffffffffffffffffffffffff92831617905560a09093015160059092019190915590871660008181526009602090815260409182902087905581518581529081019290925233908201527f0e60db7bbf5520de867952da91354735d52cd45c16e9d753a98a9111b6a6b6fd910160405180910390a1505050505050565b6008602052600090815260409020805460018201805491929162000db5906200269b565b80601f016020809104026020016040519081016040528092919081815260200182805462000de3906200269b565b801562000e345780601f1062000e085761010080835404028352916020019162000e34565b820191906000526020600020905b81548152906001019060200180831162000e1657829003601f168201915b50505050509080600201805462000e4b906200269b565b80601f016020809104026020016040519081016040528092919081815260200182805462000e79906200269b565b801562000eca5780601f1062000e9e5761010080835404028352916020019162000eca565b820191906000526020600020905b81548152906001019060200180831162000eac57829003601f168201915b50505050600383015460048401546005909401549293909273ffffffffffffffffffffffffffffffffffffffff909116915086565b60005473ffffffffffffffffffffffffffffffffffffffff16331462000f82576040517f08c379a000000000000000000000000000000000000000000000000000000000815260206004820181905260248201527f4f776e61626c653a2063616c6c6572206973206e6f7420746865206f776e6572604482015260640162000438565b62000f8e600062001b45565b565b60005473ffffffffffffffffffffffffffffffffffffffff16331462001013576040517f08c379a000000000000000000000000000000000000000000000000000000000815260206004820181905260248201527f4f776e61626c653a2063616c6c6572206973206e6f7420746865206f776e6572604482015260640162000438565b600180547fffffffffffffffffffffffff00000000000000000000000000000000000000001673ffffffffffffffffffffffffffffffffffffffff92909216919091179055565b3360009081526007602052604090205473ffffffffffffffffffffffffffffffffffffffff1615620010e9576040517f08c379a000000000000000000000000000000000000000000000000000000000815260206004820152601460248201527f41494d6520616c72656164792063726561746564000000000000000000000000604482015260640162000438565b60008282604051620010fb90620021ac565b6200110892919062002556565b604051809103906000f08015801562001125573d6000803e3d6000fd5b506003546040517f40c10f19000000000000000000000000000000000000000000000000000000008152336004820152602481019190915290915073ffffffffffffffffffffffffffffffffffffffff8216906340c10f1990604401600060405180830381600087803b1580156200119c57600080fd5b505af1158015620011b1573d6000803e3d6000fd5b5050600480546040517f40c10f190000000000000000000000000000000000000000000000000000000081523092810192909252602482015273ffffffffffffffffffffffffffffffffffffffff841692506340c10f199150604401600060405180830381600087803b1580156200122857600080fd5b505af11580156200123d573d6000803e3d6000fd5b5050600454336000818152600a6020908152604080832094909455600781529083902080547fffffffffffffffffffffffff00000000000000000000000000000000000000001673ffffffffffffffffffffffffffffffffffffffff88169081179091558351928352908201528493507f2fdfe5d8ff64c8fe5d55803e3ed9558762552574dafc7a5cd5a67613ffe7ba1192500160405180910390a150505050565b73ffffffffffffffffffffffffffffffffffffffff85811660009081526007602052604081205490911662001371576040517f08c379a000000000000000000000000000000000000000000000000000000000815260206004820152600c60248201527f496e76616c69642041494d650000000000000000000000000000000000000000604482015260640162000438565b73ffffffffffffffffffffffffffffffffffffffff86811660009081526007602090815260408083205490517f4164526577617264000000000000000000000000000000000000000000000000928101929092527fffffffffffffffffffffffffffffffffffffffff00000000000000000000000060608b811b82166028850152603c84018b905233901b16605c83015260708201889052609082018790529092169160b0016040516020818303038152906040528051906020012090506200143b81856200196b565b5073ffffffffffffffffffffffffffffffffffffffff8816600090815260086020526040902054871415620014a75773ffffffffffffffffffffffffffffffffffffffff881660009081526009602052604081208054889290620014a190849062002681565b90915550505b6040517fa9059cbb0000000000000000000000000000000000000000000000000000000081523360048201526024810187905273ffffffffffffffffffffffffffffffffffffffff83169063a9059cbb90604401602060405180830381600087803b1580156200151657600080fd5b505af11580156200152b573d6000803e3d6000fd5b505050506040513d601f19601f8201168201806040525081019062001551919062002447565b5073ffffffffffffffffffffffffffffffffffffffff8816600081815260086020908152604091829020548251908152908101929092523390820152606081018790527fce37b312a797b79f174c99b478ca831564cf2d225fa4044b6d7aa6d7334e3ce6906080015b60405180910390a1506001979650505050505050565b73ffffffffffffffffffffffffffffffffffffffff85811660009081526007602052604081205490911662001662576040517f08c379a000000000000000000000000000000000000000000000000000000000815260206004820152600c60248201527f496e76616c69642041494d650000000000000000000000000000000000000000604482015260640162000438565b73ffffffffffffffffffffffffffffffffffffffff86811660009081526007602090815260408083205490517f426964526566756e640000000000000000000000000000000000000000000000928101929092527fffffffffffffffffffffffffffffffffffffffff00000000000000000000000060608b811b82166029850152603d84018b905233901b16605d83015260718201889052609182018790529092169160b1016040516020818303038152906040528051906020012090506200172c81856200196b565b506040517fa9059cbb0000000000000000000000000000000000000000000000000000000081523360048201526024810187905273ffffffffffffffffffffffffffffffffffffffff83169063a9059cbb90604401602060405180830381600087803b1580156200179c57600080fd5b505af1158015620017b1573d6000803e3d6000fd5b505050506040513d601f19601f82011682018060405250810190620017d7919062002447565b506040805188815273ffffffffffffffffffffffffffffffffffffffff8a1660208201523391810191909152606081018790527f41da1dc44711a406471e0deb66bc8bf75abc3d9704eef9c5265dc587e0c03a8790608001620015ba565b60005473ffffffffffffffffffffffffffffffffffffffff163314620018b8576040517f08c379a000000000000000000000000000000000000000000000000000000000815260206004820181905260248201527f4f776e61626c653a2063616c6c6572206973206e6f7420746865206f776e6572604482015260640162000438565b73ffffffffffffffffffffffffffffffffffffffff81166200195d576040517f08c379a000000000000000000000000000000000000000000000000000000000815260206004820152602660248201527f4f776e61626c653a206e6577206f776e657220697320746865207a65726f206160448201527f6464726573730000000000000000000000000000000000000000000000000000606482015260840162000438565b620019688162001b45565b50565b600080620019c6846040517f19457468657265756d205369676e6564204d6573736167653a0a3332000000006020820152603c8101829052600090605c01604051602081830303815290604052805190602001209050919050565b90506000620019d6828562001bba565b905073ffffffffffffffffffffffffffffffffffffffff81161580159062001a18575060015473ffffffffffffffffffffffffffffffffffffffff8281169116145b62001a80576040517f08c379a000000000000000000000000000000000000000000000000000000000815260206004820152601360248201527f7369676e6174757265206e6f742076616c696400000000000000000000000000604482015260640162000438565b506001949350505050565b60008062001aa8600a62001aa186600c62001be2565b9062001bf7565b909210159392505050565b60008043409050600081424160405160200162001b0893929190928352602083019190915260601b7fffffffffffffffffffffffffffffffffffffffff00000000000000000000000016604082015260540190565b604080517fffffffffffffffffffffffffffffffffffffffffffffffffffffffffffffffe081840301815291905280516020909101209392505050565b6000805473ffffffffffffffffffffffffffffffffffffffff8381167fffffffffffffffffffffffff0000000000000000000000000000000000000000831681178455604051919092169283917f8be0079c531659141344cd1fd0a4f28419497f9722a3daafe3b4186f6b6457e09190a35050565b600080600062001bcb858562001c05565b9150915062001bda8162001c7d565b509392505050565b600062001bf0828462002641565b9392505050565b600062001bf0828462002607565b60008082516041141562001c405760208301516040840151606085015160001a62001c338782858562001fa7565b9450945050505062001c76565b82516040141562001c6e576020830151604084015162001c62868383620020c7565b93509350505062001c76565b506000905060025b9250929050565b600081600481111562001cb9577f4e487b7100000000000000000000000000000000000000000000000000000000600052602160045260246000fd5b141562001cc35750565b600181600481111562001cff577f4e487b7100000000000000000000000000000000000000000000000000000000600052602160045260246000fd5b141562001d69576040517f08c379a000000000000000000000000000000000000000000000000000000000815260206004820152601860248201527f45434453413a20696e76616c6964207369676e61747572650000000000000000604482015260640162000438565b600281600481111562001da5577f4e487b7100000000000000000000000000000000000000000000000000000000600052602160045260246000fd5b141562001e0f576040517f08c379a000000000000000000000000000000000000000000000000000000000815260206004820152601f60248201527f45434453413a20696e76616c6964207369676e6174757265206c656e67746800604482015260640162000438565b600381600481111562001e4b577f4e487b7100000000000000000000000000000000000000000000000000000000600052602160045260246000fd5b141562001edb576040517f08c379a000000000000000000000000000000000000000000000000000000000815260206004820152602260248201527f45434453413a20696e76616c6964207369676e6174757265202773272076616c60448201527f7565000000000000000000000000000000000000000000000000000000000000606482015260840162000438565b600481600481111562001f17577f4e487b7100000000000000000000000000000000000000000000000000000000600052602160045260246000fd5b141562001968576040517f08c379a000000000000000000000000000000000000000000000000000000000815260206004820152602260248201527f45434453413a20696e76616c6964207369676e6174757265202776272076616c60448201527f7565000000000000000000000000000000000000000000000000000000000000606482015260840162000438565b6000807f7fffffffffffffffffffffffffffffff5d576e7357a4501ddfe92f46681b20a083111562001fe05750600090506003620020be565b8460ff16601b1415801562001ff957508460ff16601c14155b156200200c5750600090506004620020be565b6040805160008082526020820180845289905260ff881692820192909252606081018690526080810185905260019060a0016020604051602081039080840390855afa15801562002061573d6000803e3d6000fd5b50506040517fffffffffffffffffffffffffffffffffffffffffffffffffffffffffffffffe0015191505073ffffffffffffffffffffffffffffffffffffffff8116620020b757600060019250925050620020be565b9150600090505b94509492505050565b6000807f7fffffffffffffffffffffffffffffffffffffffffffffffffffffffffffffff831681620020ff60ff86901c601b620025ec565b90506200210f8782888562001fa7565b935093505050935093915050565b8280546200212b906200269b565b90600052602060002090601f0160209004810192826200214f57600085556200219a565b82601f106200216a57805160ff19168380011785556200219a565b828001600101855582156200219a579182015b828111156200219a5782518255916020019190600101906200217d565b50620021a8929150620021ba565b5090565b6112a1806200275083390190565b5b80821115620021a85760008155600101620021bb565b803573ffffffffffffffffffffffffffffffffffffffff81168114620021f657600080fd5b919050565b600082601f8301126200220c578081fd5b813567ffffffffffffffff808211156200222a576200222a62002720565b604051601f83017fffffffffffffffffffffffffffffffffffffffffffffffffffffffffffffffe0908116603f0116810190828211818310171562002273576200227362002720565b816040528381528660208588010111156200228c578485fd5b8360208701602083013792830160200193909352509392505050565b600060208284031215620022ba578081fd5b62001bf082620021d1565b60008060008060808587031215620022db578283fd5b620022e685620021d1565b9350602085013567ffffffffffffffff8082111562002303578485fd5b6200231188838901620021fb565b9450604087013591508082111562002327578384fd5b506200233687828801620021fb565b949793965093946060013593505050565b600080604083850312156200235a578182fd5b6200236583620021d1565b946020939093013593505050565b6000806000806080858703121562002389578384fd5b6200239485620021d1565b93506020850135925060408501359150606085013567ffffffffffffffff811115620023be578182fd5b620023cc87828801620021fb565b91505092959194509250565b600080600080600060a08688031215620023f0578081fd5b620023fb86620021d1565b9450602086013593506040860135925060608601359150608086013567ffffffffffffffff8111156200242c578182fd5b6200243a88828901620021fb565b9150509295509295909350565b60006020828403121562002459578081fd5b8151801515811462001bf0578182fd5b600080604083850312156200247c578182fd5b823567ffffffffffffffff8082111562002494578384fd5b620024a286838701620021fb565b93506020850135915080821115620024b8578283fd5b50620024c785828601620021fb565b9150509250929050565b600060208284031215620024e3578081fd5b5051919050565b60008151808452815b818110156200251157602081850181015186830182015201620024f3565b81811115620025235782602083870101525b50601f017fffffffffffffffffffffffffffffffffffffffffffffffffffffffffffffffe0169290920160200192915050565b6040815260006200256b6040830185620024ea565b82810360208401526200257f8185620024ea565b95945050505050565b86815260c060208201526000620025a360c0830188620024ea565b8281036040840152620025b78188620024ea565b6060840196909652505073ffffffffffffffffffffffffffffffffffffffff92909216608083015260a0909101529392505050565b60008219821115620026025762002602620026f1565b500190565b6000826200263c577f4e487b710000000000000000000000000000000000000000000000000000000081526012600452602481fd5b500490565b6000817fffffffffffffffffffffffffffffffffffffffffffffffffffffffffffffffff04831182151516156200267c576200267c620026f1565b500290565b600082821015620026965762002696620026f1565b500390565b600181811c90821680620026b057607f821691505b60208210811415620026eb577f4e487b7100000000000000000000000000000000000000000000000000000000600052602260045260246000fd5b50919050565b7f4e487b7100000000000000000000000000000000000000000000000000000000600052601160045260246000fd5b7f4e487b7100000000000000000000000000000000000000000000000000000000600052604160045260246000fdfe60806040523480156200001157600080fd5b50604051620012a1380380620012a1833981016040819052620000349162000237565b8151829082906200004d906003906020850190620000de565b50805162000063906004906020840190620000de565b505050620000806200007a6200008860201b60201c565b6200008c565b5050620002f1565b3390565b600580546001600160a01b038381166001600160a01b0319831681179093556040519116919082907f8be0079c531659141344cd1fd0a4f28419497f9722a3daafe3b4186f6b6457e090600090a35050565b828054620000ec906200029e565b90600052602060002090601f0160209004810192826200011057600085556200015b565b82601f106200012b57805160ff19168380011785556200015b565b828001600101855582156200015b579182015b828111156200015b5782518255916020019190600101906200013e565b50620001699291506200016d565b5090565b5b808211156200016957600081556001016200016e565b600082601f83011262000195578081fd5b81516001600160401b0380821115620001b257620001b2620002db565b604051601f8301601f19908116603f01168101908282118183101715620001dd57620001dd620002db565b81604052838152602092508683858801011115620001f9578485fd5b8491505b838210156200021c5785820183015181830184015290820190620001fd565b838211156200022d57848385830101525b9695505050505050565b600080604083850312156200024a578182fd5b82516001600160401b038082111562000261578384fd5b6200026f8683870162000184565b9350602085015191508082111562000285578283fd5b50620002948582860162000184565b9150509250929050565b600181811c90821680620002b357607f821691505b60208210811415620002d557634e487b7160e01b600052602260045260246000fd5b50919050565b634e487b7160e01b600052604160045260246000fd5b610fa080620003016000396000f3fe608060405234801561001057600080fd5b50600436106100f55760003560e01c806370a0823111610097578063a457c2d711610066578063a457c2d714610205578063a9059cbb14610218578063dd62ed3e1461022b578063f2fde38b1461027157600080fd5b806370a0823114610197578063715018a6146101cd5780638da5cb5b146101d557806395d89b41146101fd57600080fd5b806323b872dd116100d357806323b872dd1461014d578063313ce56714610160578063395093511461016f57806340c10f191461018257600080fd5b806306fdde03146100fa578063095ea7b31461011857806318160ddd1461013b575b600080fd5b610102610284565b60405161010f9190610e91565b60405180910390f35b61012b610126366004610e68565b610316565b604051901515815260200161010f565b6002545b60405190815260200161010f565b61012b61015b366004610e2d565b61032e565b6040516012815260200161010f565b61012b61017d366004610e68565b610352565b610195610190366004610e68565b61039e565b005b61013f6101a5366004610dda565b73ffffffffffffffffffffffffffffffffffffffff1660009081526020819052604090205490565b610195610432565b60055460405173ffffffffffffffffffffffffffffffffffffffff909116815260200161010f565b6101026104bf565b61012b610213366004610e68565b6104ce565b61012b610226366004610e68565b61059f565b61013f610239366004610dfb565b73ffffffffffffffffffffffffffffffffffffffff918216600090815260016020908152604080832093909416825291909152205490565b61019561027f366004610dda565b6105ad565b60606003805461029390610f3f565b80601f01602080910402602001604051908101604052809291908181526020018280546102bf90610f3f565b801561030c5780601f106102e15761010080835404028352916020019161030c565b820191906000526020600020905b8154815290600101906020018083116102ef57829003601f168201915b5050505050905090565b6000336103248185856106dd565b5060019392505050565b60003361033c858285610890565b610347858585610967565b506001949350505050565b33600081815260016020908152604080832073ffffffffffffffffffffffffffffffffffffffff871684529091528120549091906103249082908690610399908790610f02565b6106dd565b60055473ffffffffffffffffffffffffffffffffffffffff163314610424576040517f08c379a000000000000000000000000000000000000000000000000000000000815260206004820181905260248201527f4f776e61626c653a2063616c6c6572206973206e6f7420746865206f776e657260448201526064015b60405180910390fd5b61042e8282610c1a565b5050565b60055473ffffffffffffffffffffffffffffffffffffffff1633146104b3576040517f08c379a000000000000000000000000000000000000000000000000000000000815260206004820181905260248201527f4f776e61626c653a2063616c6c6572206973206e6f7420746865206f776e6572604482015260640161041b565b6104bd6000610d3a565b565b60606004805461029390610f3f565b33600081815260016020908152604080832073ffffffffffffffffffffffffffffffffffffffff8716845290915281205490919083811015610592576040517f08c379a000000000000000000000000000000000000000000000000000000000815260206004820152602560248201527f45524332303a2064656372656173656420616c6c6f77616e63652062656c6f7760448201527f207a65726f000000000000000000000000000000000000000000000000000000606482015260840161041b565b61034782868684036106dd565b600033610324818585610967565b60055473ffffffffffffffffffffffffffffffffffffffff16331461062e576040517f08c379a000000000000000000000000000000000000000000000000000000000815260206004820181905260248201527f4f776e61626c653a2063616c6c6572206973206e6f7420746865206f776e6572604482015260640161041b565b73ffffffffffffffffffffffffffffffffffffffff81166106d1576040517f08c379a000000000000000000000000000000000000000000000000000000000815260206004820152602660248201527f4f776e61626c653a206e6577206f776e657220697320746865207a65726f206160448201527f6464726573730000000000000000000000000000000000000000000000000000606482015260840161041b565b6106da81610d3a565b50565b73ffffffffffffffffffffffffffffffffffffffff831661077f576040517f08c379a0000000000000000000000000000000000000000000000000000000008152602060048201526024808201527f45524332303a20617070726f76652066726f6d20746865207a65726f2061646460448201527f7265737300000000000000000000000000000000000000000000000000000000606482015260840161041b565b73ffffffffffffffffffffffffffffffffffffffff8216610822576040517f08c379a000000000000000000000000000000000000000000000000000000000815260206004820152602260248201527f45524332303a20617070726f766520746f20746865207a65726f20616464726560448201527f7373000000000000000000000000000000000000000000000000000000000000606482015260840161041b565b73ffffffffffffffffffffffffffffffffffffffff83811660008181526001602090815260408083209487168084529482529182902085905590518481527f8c5be1e5ebec7d5bd14f71427d1e84f3dd0314c0f7b2291e5b200ac8c7c3b925910160405180910390a3505050565b73ffffffffffffffffffffffffffffffffffffffff8381166000908152600160209081526040808320938616835292905220547fffffffffffffffffffffffffffffffffffffffffffffffffffffffffffffffff81146109615781811015610954576040517f08c379a000000000000000000000000000000000000000000000000000000000815260206004820152601d60248201527f45524332303a20696e73756666696369656e7420616c6c6f77616e6365000000604482015260640161041b565b61096184848484036106dd565b50505050565b73ffffffffffffffffffffffffffffffffffffffff8316610a0a576040517f08c379a000000000000000000000000000000000000000000000000000000000815260206004820152602560248201527f45524332303a207472616e736665722066726f6d20746865207a65726f20616460448201527f6472657373000000000000000000000000000000000000000000000000000000606482015260840161041b565b73ffffffffffffffffffffffffffffffffffffffff8216610aad576040517f08c379a000000000000000000000000000000000000000000000000000000000815260206004820152602360248201527f45524332303a207472616e7366657220746f20746865207a65726f206164647260448201527f6573730000000000000000000000000000000000000000000000000000000000606482015260840161041b565b73ffffffffffffffffffffffffffffffffffffffff831660009081526020819052604090205481811015610b63576040517f08c379a000000000000000000000000000000000000000000000000000000000815260206004820152602660248201527f45524332303a207472616e7366657220616d6f756e742065786365656473206260448201527f616c616e63650000000000000000000000000000000000000000000000000000606482015260840161041b565b73ffffffffffffffffffffffffffffffffffffffff808516600090815260208190526040808220858503905591851681529081208054849290610ba7908490610f02565b925050819055508273ffffffffffffffffffffffffffffffffffffffff168473ffffffffffffffffffffffffffffffffffffffff167fddf252ad1be2c89b69c2b068fc378daa952ba7f163c4a11628f55a4df523b3ef84604051610c0d91815260200190565b60405180910390a3610961565b73ffffffffffffffffffffffffffffffffffffffff8216610c97576040517f08c379a000000000000000000000000000000000000000000000000000000000815260206004820152601f60248201527f45524332303a206d696e7420746f20746865207a65726f206164647265737300604482015260640161041b565b8060026000828254610ca99190610f02565b909155505073ffffffffffffffffffffffffffffffffffffffff821660009081526020819052604081208054839290610ce3908490610f02565b909155505060405181815273ffffffffffffffffffffffffffffffffffffffff8316906000907fddf252ad1be2c89b69c2b068fc378daa952ba7f163c4a11628f55a4df523b3ef9060200160405180910390a35050565b6005805473ffffffffffffffffffffffffffffffffffffffff8381167fffffffffffffffffffffffff0000000000000000000000000000000000000000831681179093556040519116919082907f8be0079c531659141344cd1fd0a4f28419497f9722a3daafe3b4186f6b6457e090600090a35050565b803573ffffffffffffffffffffffffffffffffffffffff81168114610dd557600080fd5b919050565b600060208284031215610deb578081fd5b610df482610db1565b9392505050565b60008060408385031215610e0d578081fd5b610e1683610db1565b9150610e2460208401610db1565b90509250929050565b600080600060608486031215610e41578081fd5b610e4a84610db1565b9250610e5860208501610db1565b9150604084013590509250925092565b60008060408385031215610e7a578182fd5b610e8383610db1565b946020939093013593505050565b6000602080835283518082850152825b81811015610ebd57858101830151858201604001528201610ea1565b81811115610ece5783604083870101525b50601f017fffffffffffffffffffffffffffffffffffffffffffffffffffffffffffffffe016929092016040019392505050565b60008219821115610f3a577f4e487b710000000000000000000000000000000000000000000000000000000081526011600452602481fd5b500190565b600181811c90821680610f5357607f821691505b60208210811415610f8d577f4e487b7100000000000000000000000000000000000000000000000000000000600052602260045260246000fd5b5091905056fea164736f6c6343000804000aa164736f6c6343000804000a",
  "linkReferences": {},
  "deployedLinkReferences": {}
}